{
  "contractName": "Broker",
  "abi": [
    {
      "anonymous": false,
      "inputs": [
        {
          "indexed": true,
          "internalType": "address",
          "name": "owner",
          "type": "address"
        },
        {
          "indexed": true,
          "internalType": "address",
          "name": "approved",
          "type": "address"
        },
        {
          "indexed": true,
          "internalType": "uint256",
          "name": "tokenId",
          "type": "uint256"
        }
      ],
      "name": "Approval",
      "type": "event"
    },
    {
      "anonymous": false,
      "inputs": [
        {
          "indexed": true,
          "internalType": "address",
          "name": "owner",
          "type": "address"
        },
        {
          "indexed": true,
          "internalType": "address",
          "name": "operator",
          "type": "address"
        },
        {
          "indexed": false,
          "internalType": "bool",
          "name": "approved",
          "type": "bool"
        }
      ],
      "name": "ApprovalForAll",
      "type": "event"
    },
    {
      "anonymous": false,
      "inputs": [
        {
          "indexed": false,
          "internalType": "address",
          "name": "_seller",
          "type": "address"
        },
        {
          "indexed": false,
          "internalType": "address",
          "name": "_buyer",
          "type": "address"
        },
        {
          "indexed": false,
          "internalType": "uint256",
          "name": "_price",
          "type": "uint256"
        }
      ],
      "name": "NftBought",
      "type": "event"
    },
    {
      "anonymous": false,
      "inputs": [
        {
          "indexed": true,
          "internalType": "address",
          "name": "from",
          "type": "address"
        },
        {
          "indexed": true,
          "internalType": "address",
          "name": "to",
          "type": "address"
        },
        {
          "indexed": true,
          "internalType": "uint256",
          "name": "tokenId",
          "type": "uint256"
        }
      ],
      "name": "Transfer",
      "type": "event"
    },
    {
      "inputs": [
        {
          "internalType": "address",
          "name": "to",
          "type": "address"
        },
        {
          "internalType": "uint256",
          "name": "tokenId",
          "type": "uint256"
        }
      ],
      "name": "approve",
      "outputs": [],
      "stateMutability": "nonpayable",
      "type": "function"
    },
    {
      "inputs": [
        {
          "internalType": "address",
          "name": "owner",
          "type": "address"
        }
      ],
      "name": "balanceOf",
      "outputs": [
        {
          "internalType": "uint256",
          "name": "",
          "type": "uint256"
        }
      ],
      "stateMutability": "view",
      "type": "function",
      "constant": true
    },
    {
      "inputs": [
        {
          "internalType": "uint256",
          "name": "tokenId",
          "type": "uint256"
        }
      ],
      "name": "getApproved",
      "outputs": [
        {
          "internalType": "address",
          "name": "",
          "type": "address"
        }
      ],
      "stateMutability": "view",
      "type": "function",
      "constant": true
    },
    {
      "inputs": [
        {
          "internalType": "address",
          "name": "owner",
          "type": "address"
        },
        {
          "internalType": "address",
          "name": "operator",
          "type": "address"
        }
      ],
      "name": "isApprovedForAll",
      "outputs": [
        {
          "internalType": "bool",
          "name": "",
          "type": "bool"
        }
      ],
      "stateMutability": "view",
      "type": "function",
      "constant": true
    },
    {
      "inputs": [
        {
          "internalType": "address",
          "name": "owner",
          "type": "address"
        },
        {
          "internalType": "string",
          "name": "tokenURI",
          "type": "string"
        }
      ],
      "name": "mintToken",
      "outputs": [
        {
          "internalType": "uint256",
          "name": "",
          "type": "uint256"
        }
      ],
      "stateMutability": "nonpayable",
      "type": "function"
    },
    {
      "inputs": [],
      "name": "name",
      "outputs": [
        {
          "internalType": "string",
          "name": "",
          "type": "string"
        }
      ],
      "stateMutability": "view",
      "type": "function",
      "constant": true
    },
    {
      "inputs": [
        {
          "internalType": "uint256",
          "name": "tokenId",
          "type": "uint256"
        }
      ],
      "name": "ownerOf",
      "outputs": [
        {
          "internalType": "address",
          "name": "",
          "type": "address"
        }
      ],
      "stateMutability": "view",
      "type": "function",
      "constant": true
    },
    {
      "inputs": [
        {
          "internalType": "address",
          "name": "from",
          "type": "address"
        },
        {
          "internalType": "address",
          "name": "to",
          "type": "address"
        },
        {
          "internalType": "uint256",
          "name": "tokenId",
          "type": "uint256"
        }
      ],
      "name": "safeTransferFrom",
      "outputs": [],
      "stateMutability": "nonpayable",
      "type": "function"
    },
    {
      "inputs": [
        {
          "internalType": "address",
          "name": "from",
          "type": "address"
        },
        {
          "internalType": "address",
          "name": "to",
          "type": "address"
        },
        {
          "internalType": "uint256",
          "name": "tokenId",
          "type": "uint256"
        },
        {
          "internalType": "bytes",
          "name": "_data",
          "type": "bytes"
        }
      ],
      "name": "safeTransferFrom",
      "outputs": [],
      "stateMutability": "nonpayable",
      "type": "function"
    },
    {
      "inputs": [
        {
          "internalType": "address",
          "name": "operator",
          "type": "address"
        },
        {
          "internalType": "bool",
          "name": "approved",
          "type": "bool"
        }
      ],
      "name": "setApprovalForAll",
      "outputs": [],
      "stateMutability": "nonpayable",
      "type": "function"
    },
    {
      "inputs": [
        {
          "internalType": "bytes4",
          "name": "interfaceId",
          "type": "bytes4"
        }
      ],
      "name": "supportsInterface",
      "outputs": [
        {
          "internalType": "bool",
          "name": "",
          "type": "bool"
        }
      ],
      "stateMutability": "view",
      "type": "function",
      "constant": true
    },
    {
      "inputs": [],
      "name": "symbol",
      "outputs": [
        {
          "internalType": "string",
          "name": "",
          "type": "string"
        }
      ],
      "stateMutability": "view",
      "type": "function",
      "constant": true
    },
    {
      "inputs": [
        {
          "internalType": "uint256",
          "name": "",
          "type": "uint256"
        }
      ],
      "name": "tokenIdToPrice",
      "outputs": [
        {
          "internalType": "uint256",
          "name": "",
          "type": "uint256"
        }
      ],
      "stateMutability": "view",
      "type": "function",
      "constant": true
    },
    {
      "inputs": [
        {
          "internalType": "uint256",
          "name": "tokenId",
          "type": "uint256"
        }
      ],
      "name": "tokenURI",
      "outputs": [
        {
          "internalType": "string",
          "name": "",
          "type": "string"
        }
      ],
      "stateMutability": "view",
      "type": "function",
      "constant": true
    },
    {
      "inputs": [],
      "name": "totalSupply",
      "outputs": [
        {
          "internalType": "uint256",
          "name": "",
          "type": "uint256"
        }
      ],
      "stateMutability": "view",
      "type": "function",
      "constant": true
    },
    {
      "inputs": [
        {
          "internalType": "address",
          "name": "from",
          "type": "address"
        },
        {
          "internalType": "address",
          "name": "to",
          "type": "address"
        },
        {
          "internalType": "uint256",
          "name": "tokenId",
          "type": "uint256"
        }
      ],
      "name": "transferFrom",
      "outputs": [],
      "stateMutability": "nonpayable",
      "type": "function"
    },
    {
      "inputs": [
        {
          "internalType": "uint256",
          "name": "_rate",
          "type": "uint256"
        }
      ],
      "name": "setCommision",
      "outputs": [],
      "stateMutability": "nonpayable",
      "type": "function"
    },
    {
      "inputs": [],
      "name": "commisionRate",
      "outputs": [
        {
          "internalType": "uint256",
          "name": "",
          "type": "uint256"
        }
      ],
      "stateMutability": "view",
      "type": "function",
      "constant": true
    },
    {
      "inputs": [],
      "name": "getContractBalance",
      "outputs": [
        {
          "internalType": "uint256",
          "name": "",
          "type": "uint256"
        }
      ],
      "stateMutability": "view",
      "type": "function",
      "constant": true
    },
    {
      "inputs": [],
      "name": "getContractAddress",
      "outputs": [
        {
          "internalType": "address",
          "name": "",
          "type": "address"
        }
      ],
      "stateMutability": "view",
      "type": "function",
      "constant": true
    },
    {
      "inputs": [],
      "name": "withdraw",
      "outputs": [],
      "stateMutability": "payable",
      "type": "function",
      "payable": true
    },
    {
      "inputs": [
        {
          "internalType": "uint256",
          "name": "_tokenId",
          "type": "uint256"
        },
        {
          "internalType": "uint256",
          "name": "_price",
          "type": "uint256"
        }
      ],
      "name": "beginSale",
      "outputs": [],
      "stateMutability": "nonpayable",
      "type": "function"
    },
    {
      "inputs": [
        {
          "internalType": "uint256",
          "name": "_tokenId",
          "type": "uint256"
        }
      ],
      "name": "closeSale",
      "outputs": [],
      "stateMutability": "nonpayable",
      "type": "function"
    },
    {
      "inputs": [
        {
          "internalType": "uint256",
          "name": "_tokenId",
          "type": "uint256"
        }
      ],
      "name": "buy",
      "outputs": [],
      "stateMutability": "payable",
      "type": "function",
      "payable": true
    }
  ],
  "bytecode": "0x6080604052600260085573fea4b91ba33af2312bd39f0b21d094a54a7bc0e7600a60006101000a81548173ffffffffffffffffffffffffffffffffffffffff021916908373ffffffffffffffffffffffffffffffffffffffff1602179055503480156200006b57600080fd5b506040518060400160405280601881526020017f547279344465706c6f7954657374373231526f707374656e00000000000000008152506040518060400160405280600481526020017f44545245000000000000000000000000000000000000000000000000000000008152508160009080519060200190620000f092919062000112565b5080600190805190602001906200010992919062000112565b50505062000227565b8280546200012090620001c2565b90600052602060002090601f01602090048101928262000144576000855562000190565b82601f106200015f57805160ff191683800117855562000190565b8280016001018555821562000190579182015b828111156200018f57825182559160200191906001019062000172565b5b5090506200019f9190620001a3565b5090565b5b80821115620001be576000816000905550600101620001a4565b5090565b60006002820490506001821680620001db57607f821691505b60208210811415620001f257620001f1620001f8565b5b50919050565b7f4e487b7100000000000000000000000000000000000000000000000000000000600052602260045260246000fd5b61382280620002376000396000f3fe60806040526004361061014b5760003560e01c806370a08231116100b6578063bdffa49b1161006f578063bdffa49b14610481578063c6dc9fdc146104ac578063c87b56dd146104d5578063d96a094a14610512578063e985e9c51461052e578063f4812eb91461056b5761014b565b806370a082311461037557806395d89b41146103b2578063a22cb465146103dd578063a4223d5314610406578063a9852ab61461042f578063b88d4fde146104585761014b565b806332a2c5d01161010857806332a2c5d0146102725780633ccfd60b1461029d5780633d02d0c9146102a757806342842e0e146102e45780636352211e1461030d5780636f9fb98a1461034a5761014b565b806301ffc9a71461015057806306fdde031461018d578063081812fc146101b8578063095ea7b3146101f557806318160ddd1461021e57806323b872dd14610249575b600080fd5b34801561015c57600080fd5b506101776004803603810190610172919061266f565b6105a8565b6040516101849190613055565b60405180910390f35b34801561019957600080fd5b506101a261068a565b6040516101af9190613070565b60405180910390f35b3480156101c457600080fd5b506101df60048036038101906101da91906126c1565b61071c565b6040516101ec9190612fb7565b60405180910390f35b34801561020157600080fd5b5061021c60048036038101906102179190612633565b6107a1565b005b34801561022a57600080fd5b506102336108b9565b6040516102409190613352565b60405180910390f35b34801561025557600080fd5b50610270600480360381019061026b91906124d9565b6108ca565b005b34801561027e57600080fd5b5061028761092a565b6040516102949190612fb7565b60405180910390f35b6102a5610932565b005b3480156102b357600080fd5b506102ce60048036038101906102c991906125df565b610a9d565b6040516102db9190613352565b60405180910390f35b3480156102f057600080fd5b5061030b600480360381019061030691906124d9565b610b7c565b005b34801561031957600080fd5b50610334600480360381019061032f91906126c1565b610b9c565b6040516103419190612fb7565b60405180910390f35b34801561035657600080fd5b5061035f610c4e565b60405161036c9190613352565b60405180910390f35b34801561038157600080fd5b5061039c60048036038101906103979190612474565b610c56565b6040516103a99190613352565b60405180910390f35b3480156103be57600080fd5b506103c7610d0e565b6040516103d49190613070565b60405180910390f35b3480156103e957600080fd5b5061040460048036038101906103ff91906125a3565b610da0565b005b34801561041257600080fd5b5061042d600480360381019061042891906126c1565b610f21565b005b34801561043b57600080fd5b50610456600480360381019061045191906126c1565b610fb3565b005b34801561046457600080fd5b5061047f600480360381019061047a9190612528565b61104d565b005b34801561048d57600080fd5b506104966110af565b6040516104a39190613352565b60405180910390f35b3480156104b857600080fd5b506104d360048036038101906104ce91906126ea565b6110b9565b005b3480156104e157600080fd5b506104fc60048036038101906104f791906126c1565b6111a3565b6040516105099190613070565b60405180910390f35b61052c600480360381019061052791906126c1565b6112f5565b005b34801561053a57600080fd5b506105556004803603810190610550919061249d565b611436565b6040516105629190613055565b60405180910390f35b34801561057757600080fd5b50610592600480360381019061058d91906126c1565b6114ca565b60405161059f9190613352565b60405180910390f35b60007f80ac58cd000000000000000000000000000000000000000000000000000000007bffffffffffffffffffffffffffffffffffffffffffffffffffffffff1916827bffffffffffffffffffffffffffffffffffffffffffffffffffffffff1916148061067357507f5b5e139f000000000000000000000000000000000000000000000000000000007bffffffffffffffffffffffffffffffffffffffffffffffffffffffff1916827bffffffffffffffffffffffffffffffffffffffffffffffffffffffff1916145b806106835750610682826114e2565b5b9050919050565b60606000805461069990613617565b80601f01602080910402602001604051908101604052809291908181526020018280546106c590613617565b80156107125780601f106106e757610100808354040283529160200191610712565b820191906000526020600020905b8154815290600101906020018083116106f557829003601f168201915b5050505050905090565b60006107278261154c565b610766576040517f08c379a000000000000000000000000000000000000000000000000000000000815260040161075d90613232565b60405180910390fd5b6004600083815260200190815260200160002060009054906101000a900473ffffffffffffffffffffffffffffffffffffffff169050919050565b60006107ac82610b9c565b90508073ffffffffffffffffffffffffffffffffffffffff168373ffffffffffffffffffffffffffffffffffffffff16141561081d576040517f08c379a0000000000000000000000000000000000000000000000000000000008152600401610814906132d2565b60405180910390fd5b8073ffffffffffffffffffffffffffffffffffffffff1661083c6115b8565b73ffffffffffffffffffffffffffffffffffffffff16148061086b575061086a816108656115b8565b611436565b5b6108aa576040517f08c379a00000000000000000000000000000000000000000000000000000000081526004016108a190613172565b60405180910390fd5b6108b483836115c0565b505050565b60006108c56007611679565b905090565b6108db6108d56115b8565b82611687565b61091a576040517f08c379a000000000000000000000000000000000000000000000000000000000815260040161091190613312565b60405180910390fd5b610925838383611765565b505050565b600030905090565b600a60009054906101000a900473ffffffffffffffffffffffffffffffffffffffff1673ffffffffffffffffffffffffffffffffffffffff163373ffffffffffffffffffffffffffffffffffffffff16146109c2576040517f08c379a00000000000000000000000000000000000000000000000000000000081526004016109b990613092565b60405180910390fd5b600080600a60009054906101000a900473ffffffffffffffffffffffffffffffffffffffff1673ffffffffffffffffffffffffffffffffffffffff16610a06610c4e565b604051610a1290612fa2565b60006040518083038185875af1925050503d8060008114610a4f576040519150601f19603f3d011682016040523d82523d6000602084013e610a54565b606091505b509150915081610a99576040517f08c379a0000000000000000000000000000000000000000000000000000000008152600401610a9090613332565b60405180910390fd5b5050565b60008073ffffffffffffffffffffffffffffffffffffffff168373ffffffffffffffffffffffffffffffffffffffff161415610b0e576040517f08c379a0000000000000000000000000000000000000000000000000000000008152600401610b05906131f2565b60405180910390fd5b8273ffffffffffffffffffffffffffffffffffffffff163373ffffffffffffffffffffffffffffffffffffffff1614610b4657600080fd5b610b5060076119c1565b6000610b5c6007611679565b9050610b6884826119d7565b610b728184611ba5565b8091505092915050565b610b978383836040518060200160405280600081525061104d565b505050565b6000806002600084815260200190815260200160002060009054906101000a900473ffffffffffffffffffffffffffffffffffffffff169050600073ffffffffffffffffffffffffffffffffffffffff168173ffffffffffffffffffffffffffffffffffffffff161415610c45576040517f08c379a0000000000000000000000000000000000000000000000000000000008152600401610c3c906131b2565b60405180910390fd5b80915050919050565b600047905090565b60008073ffffffffffffffffffffffffffffffffffffffff168273ffffffffffffffffffffffffffffffffffffffff161415610cc7576040517f08c379a0000000000000000000000000000000000000000000000000000000008152600401610cbe90613192565b60405180910390fd5b600360008373ffffffffffffffffffffffffffffffffffffffff1673ffffffffffffffffffffffffffffffffffffffff168152602001908152602001600020549050919050565b606060018054610d1d90613617565b80601f0160208091040260200160405190810160405280929190818152602001828054610d4990613617565b8015610d965780601f10610d6b57610100808354040283529160200191610d96565b820191906000526020600020905b815481529060010190602001808311610d7957829003601f168201915b5050505050905090565b610da86115b8565b73ffffffffffffffffffffffffffffffffffffffff168273ffffffffffffffffffffffffffffffffffffffff161415610e16576040517f08c379a0000000000000000000000000000000000000000000000000000000008152600401610e0d90613132565b60405180910390fd5b8060056000610e236115b8565b73ffffffffffffffffffffffffffffffffffffffff1673ffffffffffffffffffffffffffffffffffffffff16815260200190815260200160002060008473ffffffffffffffffffffffffffffffffffffffff1673ffffffffffffffffffffffffffffffffffffffff16815260200190815260200160002060006101000a81548160ff0219169083151502179055508173ffffffffffffffffffffffffffffffffffffffff16610ed06115b8565b73ffffffffffffffffffffffffffffffffffffffff167f17307eab39ab6107e8899845ad3d59bd9653f200f220920489ca2b5937696c3183604051610f159190613055565b60405180910390a35050565b610f2a81610b9c565b73ffffffffffffffffffffffffffffffffffffffff163373ffffffffffffffffffffffffffffffffffffffff1614610f97576040517f08c379a0000000000000000000000000000000000000000000000000000000008152600401610f8e906132f2565b60405180910390fd5b6000600b60008381526020019081526020016000208190555050565b600a60009054906101000a900473ffffffffffffffffffffffffffffffffffffffff1673ffffffffffffffffffffffffffffffffffffffff163373ffffffffffffffffffffffffffffffffffffffff1614611043576040517f08c379a000000000000000000000000000000000000000000000000000000000815260040161103a90613092565b60405180910390fd5b8060088190555050565b61105e6110586115b8565b83611687565b61109d576040517f08c379a000000000000000000000000000000000000000000000000000000000815260040161109490613312565b60405180910390fd5b6110a984848484611c19565b50505050565b6000600854905090565b6110c282610b9c565b8073ffffffffffffffffffffffffffffffffffffffff163373ffffffffffffffffffffffffffffffffffffffff1614611130576040517f08c379a0000000000000000000000000000000000000000000000000000000008152600401611127906132f2565b60405180910390fd5b60008211611173576040517f08c379a000000000000000000000000000000000000000000000000000000000815260040161116a90613292565b60405180910390fd5b670de0b6b3a76400008261118791906134d3565b600b600085815260200190815260200160002081905550505050565b60606111ae8261154c565b6111ed576040517f08c379a00000000000000000000000000000000000000000000000000000000081526004016111e490613212565b60405180910390fd5b600060066000848152602001908152602001600020805461120d90613617565b80601f016020809104026020016040519081016040528092919081815260200182805461123990613617565b80156112865780601f1061125b57610100808354040283529160200191611286565b820191906000526020600020905b81548152906001019060200180831161126957829003601f168201915b505050505090506000611297611c75565b90506000815114156112ad5781925050506112f0565b6000825111156112e25780826040516020016112ca929190612f7e565b604051602081830303815290604052925050506112f0565b6112eb84611c8c565b925050505b919050565b34600c60003373ffffffffffffffffffffffffffffffffffffffff1673ffffffffffffffffffffffffffffffffffffffff1681526020019081526020016000206000828254611344919061344c565b9250508190555061135481611d33565b600061135f34611f20565b9050600960009054906101000a900473ffffffffffffffffffffffffffffffffffffffff1673ffffffffffffffffffffffffffffffffffffffff166108fc82346113a9919061352d565b9081150290604051600060405180830381858888f193505050501580156113d4573d6000803e3d6000fd5b507f608f6ac9327c2bf4d3c77adf447d2c448ba7b0971e0aaa9aa03f7ac29d874a44600960009054906101000a900473ffffffffffffffffffffffffffffffffffffffff16333460405161142a93929190612fd2565b60405180910390a15050565b6000600560008473ffffffffffffffffffffffffffffffffffffffff1673ffffffffffffffffffffffffffffffffffffffff16815260200190815260200160002060008373ffffffffffffffffffffffffffffffffffffffff1673ffffffffffffffffffffffffffffffffffffffff16815260200190815260200160002060009054906101000a900460ff16905092915050565b600b6020528060005260406000206000915090505481565b60007f01ffc9a7000000000000000000000000000000000000000000000000000000007bffffffffffffffffffffffffffffffffffffffffffffffffffffffff1916827bffffffffffffffffffffffffffffffffffffffffffffffffffffffff1916149050919050565b60008073ffffffffffffffffffffffffffffffffffffffff166002600084815260200190815260200160002060009054906101000a900473ffffffffffffffffffffffffffffffffffffffff1673ffffffffffffffffffffffffffffffffffffffff1614159050919050565b600033905090565b816004600083815260200190815260200160002060006101000a81548173ffffffffffffffffffffffffffffffffffffffff021916908373ffffffffffffffffffffffffffffffffffffffff160217905550808273ffffffffffffffffffffffffffffffffffffffff1661163383610b9c565b73ffffffffffffffffffffffffffffffffffffffff167f8c5be1e5ebec7d5bd14f71427d1e84f3dd0314c0f7b2291e5b200ac8c7c3b92560405160405180910390a45050565b600081600001549050919050565b60006116928261154c565b6116d1576040517f08c379a00000000000000000000000000000000000000000000000000000000081526004016116c890613152565b60405180910390fd5b60006116dc83610b9c565b90508073ffffffffffffffffffffffffffffffffffffffff168473ffffffffffffffffffffffffffffffffffffffff16148061174b57508373ffffffffffffffffffffffffffffffffffffffff166117338461071c565b73ffffffffffffffffffffffffffffffffffffffff16145b8061175c575061175b8185611436565b5b91505092915050565b8273ffffffffffffffffffffffffffffffffffffffff1661178582610b9c565b73ffffffffffffffffffffffffffffffffffffffff16146117db576040517f08c379a00000000000000000000000000000000000000000000000000000000081526004016117d290613272565b60405180910390fd5b600073ffffffffffffffffffffffffffffffffffffffff168273ffffffffffffffffffffffffffffffffffffffff16141561184b576040517f08c379a000000000000000000000000000000000000000000000000000000000815260040161184290613112565b60405180910390fd5b611856838383611f3c565b6118616000826115c0565b6001600360008573ffffffffffffffffffffffffffffffffffffffff1673ffffffffffffffffffffffffffffffffffffffff16815260200190815260200160002060008282546118b1919061352d565b925050819055506001600360008473ffffffffffffffffffffffffffffffffffffffff1673ffffffffffffffffffffffffffffffffffffffff1681526020019081526020016000206000828254611908919061344c565b92505081905550816002600083815260200190815260200160002060006101000a81548173ffffffffffffffffffffffffffffffffffffffff021916908373ffffffffffffffffffffffffffffffffffffffff160217905550808273ffffffffffffffffffffffffffffffffffffffff168473ffffffffffffffffffffffffffffffffffffffff167fddf252ad1be2c89b69c2b068fc378daa952ba7f163c4a11628f55a4df523b3ef60405160405180910390a4505050565b6001816000016000828254019250508190555050565b600073ffffffffffffffffffffffffffffffffffffffff168273ffffffffffffffffffffffffffffffffffffffff161415611a47576040517f08c379a0000000000000000000000000000000000000000000000000000000008152600401611a3e906131f2565b60405180910390fd5b611a508161154c565b15611a90576040517f08c379a0000000000000000000000000000000000000000000000000000000008152600401611a87906130f2565b60405180910390fd5b611a9c60008383611f3c565b6001600360008473ffffffffffffffffffffffffffffffffffffffff1673ffffffffffffffffffffffffffffffffffffffff1681526020019081526020016000206000828254611aec919061344c565b92505081905550816002600083815260200190815260200160002060006101000a81548173ffffffffffffffffffffffffffffffffffffffff021916908373ffffffffffffffffffffffffffffffffffffffff160217905550808273ffffffffffffffffffffffffffffffffffffffff16600073ffffffffffffffffffffffffffffffffffffffff167fddf252ad1be2c89b69c2b068fc378daa952ba7f163c4a11628f55a4df523b3ef60405160405180910390a45050565b611bae8261154c565b611bed576040517f08c379a0000000000000000000000000000000000000000000000000000000008152600401611be4906131d2565b60405180910390fd5b80600660008481526020019081526020016000209080519060200190611c14929190612298565b505050565b611c24848484611765565b611c3084848484611f41565b611c6f576040517f08c379a0000000000000000000000000000000000000000000000000000000008152600401611c66906130b2565b60405180910390fd5b50505050565b606060405180602001604052806000815250905090565b6060611c978261154c565b611cd6576040517f08c379a0000000000000000000000000000000000000000000000000000000008152600401611ccd906132b2565b60405180910390fd5b6000611ce0611c75565b90506000815111611d005760405180602001604052806000815250611d2b565b80611d0a846120d8565b604051602001611d1b929190612f7e565b6040516020818303038152906040525b915050919050565b600b60008281526020019081526020016000205480600c60003373ffffffffffffffffffffffffffffffffffffffff1673ffffffffffffffffffffffffffffffffffffffff1681526020019081526020016000205414611dc8576040517f08c379a0000000000000000000000000000000000000000000000000000000008152600401611dbf90613252565b60405180910390fd5b6000600b600084815260200190815260200160002054905060008111611e23576040517f08c379a0000000000000000000000000000000000000000000000000000000008152600401611e1a906130d2565b60405180910390fd5b611e2c83610b9c565b600960006101000a81548173ffffffffffffffffffffffffffffffffffffffff021916908373ffffffffffffffffffffffffffffffffffffffff160217905550611e99600960009054906101000a900473ffffffffffffffffffffffffffffffffffffffff163385611765565b6000600b600085815260200190815260200160002081905550600b600084815260200190815260200160002054600c60003373ffffffffffffffffffffffffffffffffffffffff1673ffffffffffffffffffffffffffffffffffffffff1681526020019081526020016000206000828254611f14919061352d565b92505081905550505050565b60008060085483611f3191906134a2565b905080915050919050565b505050565b6000611f628473ffffffffffffffffffffffffffffffffffffffff16612285565b156120cb578373ffffffffffffffffffffffffffffffffffffffff1663150b7a02611f8b6115b8565b8786866040518563ffffffff1660e01b8152600401611fad9493929190613009565b602060405180830381600087803b158015611fc757600080fd5b505af1925050508015611ff857506040513d601f19601f82011682018060405250810190611ff59190612698565b60015b61207b573d8060008114612028576040519150601f19603f3d011682016040523d82523d6000602084013e61202d565b606091505b50600081511415612073576040517f08c379a000000000000000000000000000000000000000000000000000000000815260040161206a906130b2565b60405180910390fd5b805181602001fd5b63150b7a0260e01b7bffffffffffffffffffffffffffffffffffffffffffffffffffffffff1916817bffffffffffffffffffffffffffffffffffffffffffffffffffffffff1916149150506120d0565b600190505b949350505050565b60606000821415612120576040518060400160405280600181526020017f30000000000000000000000000000000000000000000000000000000000000008152509050612280565b600082905060005b6000821461215257808061213b90613649565b915050600a8261214b91906134a2565b9150612128565b60008167ffffffffffffffff811115612194577f4e487b7100000000000000000000000000000000000000000000000000000000600052604160045260246000fd5b6040519080825280601f01601f1916602001820160405280156121c65781602001600182028036833780820191505090505b5090505b60008514612279576001826121df919061352d565b9150600a856121ee9190613692565b60306121fa919061344c565b60f81b818381518110612236577f4e487b7100000000000000000000000000000000000000000000000000000000600052603260045260246000fd5b60200101907effffffffffffffffffffffffffffffffffffffffffffffffffffffffffffff1916908160001a905350600a8561227291906134a2565b94506121ca565b8093505050505b919050565b600080823b905060008111915050919050565b8280546122a490613617565b90600052602060002090601f0160209004810192826122c6576000855561230d565b82601f106122df57805160ff191683800117855561230d565b8280016001018555821561230d579182015b8281111561230c5782518255916020019190600101906122f1565b5b50905061231a919061231e565b5090565b5b8082111561233757600081600090555060010161231f565b5090565b600061234e6123498461339e565b61336d565b90508281526020810184848401111561236657600080fd5b6123718482856135d5565b509392505050565b600061238c612387846133ce565b61336d565b9050828152602081018484840111156123a457600080fd5b6123af8482856135d5565b509392505050565b6000813590506123c681613790565b92915050565b6000813590506123db816137a7565b92915050565b6000813590506123f0816137be565b92915050565b600081519050612405816137be565b92915050565b600082601f83011261241c57600080fd5b813561242c84826020860161233b565b91505092915050565b600082601f83011261244657600080fd5b8135612456848260208601612379565b91505092915050565b60008135905061246e816137d5565b92915050565b60006020828403121561248657600080fd5b6000612494848285016123b7565b91505092915050565b600080604083850312156124b057600080fd5b60006124be858286016123b7565b92505060206124cf858286016123b7565b9150509250929050565b6000806000606084860312156124ee57600080fd5b60006124fc868287016123b7565b935050602061250d868287016123b7565b925050604061251e8682870161245f565b9150509250925092565b6000806000806080858703121561253e57600080fd5b600061254c878288016123b7565b945050602061255d878288016123b7565b935050604061256e8782880161245f565b925050606085013567ffffffffffffffff81111561258b57600080fd5b6125978782880161240b565b91505092959194509250565b600080604083850312156125b657600080fd5b60006125c4858286016123b7565b92505060206125d5858286016123cc565b9150509250929050565b600080604083850312156125f257600080fd5b6000612600858286016123b7565b925050602083013567ffffffffffffffff81111561261d57600080fd5b61262985828601612435565b9150509250929050565b6000806040838503121561264657600080fd5b6000612654858286016123b7565b92505060206126658582860161245f565b9150509250929050565b60006020828403121561268157600080fd5b600061268f848285016123e1565b91505092915050565b6000602082840312156126aa57600080fd5b60006126b8848285016123f6565b91505092915050565b6000602082840312156126d357600080fd5b60006126e18482850161245f565b91505092915050565b600080604083850312156126fd57600080fd5b600061270b8582860161245f565b925050602061271c8582860161245f565b9150509250929050565b61272f81613561565b82525050565b61273e81613573565b82525050565b600061274f826133fe565b6127598185613414565b93506127698185602086016135e4565b6127728161377f565b840191505092915050565b600061278882613409565b6127928185613430565b93506127a28185602086016135e4565b6127ab8161377f565b840191505092915050565b60006127c182613409565b6127cb8185613441565b93506127db8185602086016135e4565b80840191505092915050565b60006127f4601a83613430565b91507f4e6f74206f776e6572206f66207468697320636f6e74726163740000000000006000830152602082019050919050565b6000612834603283613430565b91507f4552433732313a207472616e7366657220746f206e6f6e20455243373231526560008301527f63656976657220696d706c656d656e74657200000000000000000000000000006020830152604082019050919050565b600061289a601a83613430565b91507f5468697320746f6b656e206973206e6f7420666f722073616c650000000000006000830152602082019050919050565b60006128da601c83613430565b91507f4552433732313a20746f6b656e20616c7265616479206d696e746564000000006000830152602082019050919050565b600061291a602483613430565b91507f4552433732313a207472616e7366657220746f20746865207a65726f2061646460008301527f72657373000000000000000000000000000000000000000000000000000000006020830152604082019050919050565b6000612980601983613430565b91507f4552433732313a20617070726f766520746f2063616c6c6572000000000000006000830152602082019050919050565b60006129c0602c83613430565b91507f4552433732313a206f70657261746f7220717565727920666f72206e6f6e657860008301527f697374656e7420746f6b656e00000000000000000000000000000000000000006020830152604082019050919050565b6000612a26603883613430565b91507f4552433732313a20617070726f76652063616c6c6572206973206e6f74206f7760008301527f6e6572206e6f7220617070726f76656420666f7220616c6c00000000000000006020830152604082019050919050565b6000612a8c602a83613430565b91507f4552433732313a2062616c616e636520717565727920666f7220746865207a6560008301527f726f2061646472657373000000000000000000000000000000000000000000006020830152604082019050919050565b6000612af2602983613430565b91507f4552433732313a206f776e657220717565727920666f72206e6f6e657869737460008301527f656e7420746f6b656e00000000000000000000000000000000000000000000006020830152604082019050919050565b6000612b58602e83613430565b91507f45524337323155524953746f726167653a2055524920736574206f66206e6f6e60008301527f6578697374656e7420746f6b656e0000000000000000000000000000000000006020830152604082019050919050565b6000612bbe602083613430565b91507f4552433732313a206d696e7420746f20746865207a65726f20616464726573736000830152602082019050919050565b6000612bfe603183613430565b91507f45524337323155524953746f726167653a2055524920717565727920666f722060008301527f6e6f6e6578697374656e7420746f6b656e0000000000000000000000000000006020830152604082019050919050565b6000612c64602c83613430565b91507f4552433732313a20617070726f76656420717565727920666f72206e6f6e657860008301527f697374656e7420746f6b656e00000000000000000000000000000000000000006020830152604082019050919050565b6000612cca600f83613430565b91507f496e636f72726563742076616c756500000000000000000000000000000000006000830152602082019050919050565b6000612d0a602983613430565b91507f4552433732313a207472616e73666572206f6620746f6b656e2074686174206960008301527f73206e6f74206f776e00000000000000000000000000000000000000000000006020830152604082019050919050565b6000612d70600a83613430565b91507f5072696365207a65726f000000000000000000000000000000000000000000006000830152602082019050919050565b6000612db0602f83613430565b91507f4552433732314d657461646174613a2055524920717565727920666f72206e6f60008301527f6e6578697374656e7420746f6b656e00000000000000000000000000000000006020830152604082019050919050565b6000612e16602183613430565b91507f4552433732313a20617070726f76616c20746f2063757272656e74206f776e6560008301527f72000000000000000000000000000000000000000000000000000000000000006020830152604082019050919050565b6000612e7c601783613430565b91507f4e6f74206f776e6572206f66207468697320746f6b656e0000000000000000006000830152602082019050919050565b6000612ebc600083613425565b9150600082019050919050565b6000612ed6603183613430565b91507f4552433732313a207472616e736665722063616c6c6572206973206e6f74206f60008301527f776e6572206e6f7220617070726f7665640000000000000000000000000000006020830152604082019050919050565b6000612f3c600e83613430565b91507f6661696c656420746f2073656e740000000000000000000000000000000000006000830152602082019050919050565b612f78816135cb565b82525050565b6000612f8a82856127b6565b9150612f9682846127b6565b91508190509392505050565b6000612fad82612eaf565b9150819050919050565b6000602082019050612fcc6000830184612726565b92915050565b6000606082019050612fe76000830186612726565b612ff46020830185612726565b6130016040830184612f6f565b949350505050565b600060808201905061301e6000830187612726565b61302b6020830186612726565b6130386040830185612f6f565b818103606083015261304a8184612744565b905095945050505050565b600060208201905061306a6000830184612735565b92915050565b6000602082019050818103600083015261308a818461277d565b905092915050565b600060208201905081810360008301526130ab816127e7565b9050919050565b600060208201905081810360008301526130cb81612827565b9050919050565b600060208201905081810360008301526130eb8161288d565b9050919050565b6000602082019050818103600083015261310b816128cd565b9050919050565b6000602082019050818103600083015261312b8161290d565b9050919050565b6000602082019050818103600083015261314b81612973565b9050919050565b6000602082019050818103600083015261316b816129b3565b9050919050565b6000602082019050818103600083015261318b81612a19565b9050919050565b600060208201905081810360008301526131ab81612a7f565b9050919050565b600060208201905081810360008301526131cb81612ae5565b9050919050565b600060208201905081810360008301526131eb81612b4b565b9050919050565b6000602082019050818103600083015261320b81612bb1565b9050919050565b6000602082019050818103600083015261322b81612bf1565b9050919050565b6000602082019050818103600083015261324b81612c57565b9050919050565b6000602082019050818103600083015261326b81612cbd565b9050919050565b6000602082019050818103600083015261328b81612cfd565b9050919050565b600060208201905081810360008301526132ab81612d63565b9050919050565b600060208201905081810360008301526132cb81612da3565b9050919050565b600060208201905081810360008301526132eb81612e09565b9050919050565b6000602082019050818103600083015261330b81612e6f565b9050919050565b6000602082019050818103600083015261332b81612ec9565b9050919050565b6000602082019050818103600083015261334b81612f2f565b9050919050565b60006020820190506133676000830184612f6f565b92915050565b6000604051905081810181811067ffffffffffffffff8211171561339457613393613750565b5b8060405250919050565b600067ffffffffffffffff8211156133b9576133b8613750565b5b601f19601f8301169050602081019050919050565b600067ffffffffffffffff8211156133e9576133e8613750565b5b601f19601f8301169050602081019050919050565b600081519050919050565b600081519050919050565b600082825260208201905092915050565b600081905092915050565b600082825260208201905092915050565b600081905092915050565b6000613457826135cb565b9150613462836135cb565b9250827fffffffffffffffffffffffffffffffffffffffffffffffffffffffffffffffff03821115613497576134966136c3565b5b828201905092915050565b60006134ad826135cb565b91506134b8836135cb565b9250826134c8576134c76136f2565b5b828204905092915050565b60006134de826135cb565b91506134e9836135cb565b9250817fffffffffffffffffffffffffffffffffffffffffffffffffffffffffffffffff0483118215151615613522576135216136c3565b5b828202905092915050565b6000613538826135cb565b9150613543836135cb565b925082821015613556576135556136c3565b5b828203905092915050565b600061356c826135ab565b9050919050565b60008115159050919050565b60007fffffffff0000000000000000000000000000000000000000000000000000000082169050919050565b600073ffffffffffffffffffffffffffffffffffffffff82169050919050565b6000819050919050565b82818337600083830152505050565b60005b838110156136025780820151818401526020810190506135e7565b83811115613611576000848401525b50505050565b6000600282049050600182168061362f57607f821691505b6020821081141561364357613642613721565b5b50919050565b6000613654826135cb565b91507fffffffffffffffffffffffffffffffffffffffffffffffffffffffffffffffff821415613687576136866136c3565b5b600182019050919050565b600061369d826135cb565b91506136a8836135cb565b9250826136b8576136b76136f2565b5b828206905092915050565b7f4e487b7100000000000000000000000000000000000000000000000000000000600052601160045260246000fd5b7f4e487b7100000000000000000000000000000000000000000000000000000000600052601260045260246000fd5b7f4e487b7100000000000000000000000000000000000000000000000000000000600052602260045260246000fd5b7f4e487b7100000000000000000000000000000000000000000000000000000000600052604160045260246000fd5b6000601f19601f8301169050919050565b61379981613561565b81146137a457600080fd5b50565b6137b081613573565b81146137bb57600080fd5b50565b6137c78161357f565b81146137d257600080fd5b50565b6137de816135cb565b81146137e957600080fd5b5056fea26469706673582212204dd96e5be3f84c0949bae7cd0b1b39cd2a0ce568ca5665ab7aa28e14e123d4b264736f6c63430008000033",
  "immutableReferences": {},
  "source": "// SPDX-License-Identifier: MIT\r\npragma solidity ^0.8.0;\r\n\r\nimport './Token721.sol';\r\n\r\ncontract Broker is Token721 {\r\n    \r\n    event NftBought(address _seller, address _buyer, uint256 _price);\r\n    \r\n    uint256 commision = 2;\r\n    address seller;\r\n    address owner = 0xfeA4b91Ba33AF2312bd39F0B21d094A54a7Bc0e7;\r\n\r\n    mapping (uint256 => uint256) public tokenIdToPrice;\r\n    \r\n    mapping(address => uint256) balances;\r\n    \r\n    modifier fee(uint _fee) {\r\n        if (balances[msg.sender] != _fee) {\r\n            revert(\"Incorrect value\");\r\n        } else {\r\n            _;\r\n        }\r\n    }\r\n    \r\n    modifier bySeller(address _tokenOwn) {\r\n        require (msg.sender == _tokenOwn, 'Not owner of this token');\r\n        _;\r\n    }\r\n    \r\n    modifier onlyOwner() {\r\n        require (msg.sender == owner, 'Not owner of this contract');\r\n        _;\r\n    }\r\n    \r\n    //owner-------------------------\r\n    \r\n    function setCommision(uint _rate) external onlyOwner{\r\n        commision = _rate;\r\n    }\r\n    function commisionRate() external view returns(uint256){\r\n        return commision;\r\n    }\r\n    function getContractBalance() public view returns (uint){\r\n        return address(this).balance;\r\n    }\r\n    function getContractAddress() external view returns (address){\r\n        return address(this);\r\n    }\r\n    function fCommision(uint256 buyerVal) internal view returns (uint256)\r\n    {\r\n        uint256 vCommision = (buyerVal / commision);\r\n        return vCommision;\r\n    }\r\n    function withdraw() external payable onlyOwner\r\n    {\r\n        (bool success, bytes memory data) = payable(owner).call{value: getContractBalance()}(\"\");\r\n        require(success, \"failed to sent\");\r\n    }\r\n    //-------------------------owner\r\n    \r\n    function beginSale(uint256 _tokenId, uint256 _price)\r\n    external\r\n    bySeller(ownerOf(_tokenId))\r\n    {\r\n        //require(msg.sender == ownerOf(_tokenId), 'Not owner of this token');\r\n        require(_price > 0, 'Price zero');\r\n        tokenIdToPrice[_tokenId] = _price * (10**18);\r\n    }\r\n\r\n    function closeSale(uint256 _tokenId) external {\r\n        require(msg.sender == ownerOf(_tokenId), 'Not owner of this token');\r\n        tokenIdToPrice[_tokenId] = 0;\r\n    }\r\n    \r\n    function buy(uint256 _tokenId)\r\n    external\r\n    payable\r\n    {\r\n        balances[msg.sender] += msg.value;\r\n        allowTransfer(_tokenId);\r\n        \r\n        uint256 sendEth = fCommision(msg.value);\r\n        //payable(address(this)).transfer(sendEth);\r\n        payable(seller).transfer(msg.value - sendEth); // send the ETH to the seller\r\n\r\n        emit NftBought(seller, msg.sender, msg.value);\r\n    }\r\n    \r\n    function allowTransfer(uint256 _tokenId)\r\n    internal\r\n    fee(tokenIdToPrice[_tokenId])\r\n    {\r\n        uint256 price = tokenIdToPrice[_tokenId];\r\n        require(price > 0, 'This token is not for sale');\r\n        \r\n        seller = ownerOf(_tokenId);\r\n        _transfer(seller, msg.sender, _tokenId);\r\n        tokenIdToPrice[_tokenId] = 0; // not for sale anymore\r\n        balances[msg.sender] -= tokenIdToPrice[_tokenId];\r\n    }\r\n}",
  "sourcePath": "D:\\workspace\\BBwork_block\\21_hf252-master\\contracts\\Broker.sol",
  "compiler": {
    "name": "solc",
    "version": "0.8.0+commit.c7dfd78e.Emscripten.clang"
  },
  "schemaVersion": "3.4.2",
  "updatedAt": "2021-09-10T19:22:49.322Z",
  "networkType": "ethereum",
  "devdoc": {
    "kind": "dev",
    "methods": {
      "approve(address,uint256)": {
        "details": "See {IERC721-approve}."
      },
      "balanceOf(address)": {
        "details": "See {IERC721-balanceOf}."
      },
      "getApproved(uint256)": {
        "details": "See {IERC721-getApproved}."
      },
      "isApprovedForAll(address,address)": {
        "details": "See {IERC721-isApprovedForAll}."
      },
      "name()": {
        "details": "See {IERC721Metadata-name}."
      },
      "ownerOf(uint256)": {
        "details": "See {IERC721-ownerOf}."
      },
      "safeTransferFrom(address,address,uint256)": {
        "details": "See {IERC721-safeTransferFrom}."
      },
      "safeTransferFrom(address,address,uint256,bytes)": {
        "details": "See {IERC721-safeTransferFrom}."
      },
      "setApprovalForAll(address,bool)": {
        "details": "See {IERC721-setApprovalForAll}."
      },
      "supportsInterface(bytes4)": {
        "details": "See {IERC165-supportsInterface}."
      },
      "symbol()": {
        "details": "See {IERC721Metadata-symbol}."
      },
      "tokenURI(uint256)": {
        "details": "See {IERC721Metadata-tokenURI}."
      },
      "transferFrom(address,address,uint256)": {
        "details": "See {IERC721-transferFrom}."
      }
    },
    "version": 1
  },
  "userdoc": {
    "kind": "user",
    "methods": {},
    "version": 1
  }
}